{
  "address": "0xCEc1A02D8a316c56aF3513998667a665CFb1777E",
  "abi": [
    {
      "inputs": [
        {
          "internalType": "string",
          "name": "_tokenName",
          "type": "string"
        },
        {
          "internalType": "string",
          "name": "_tokenSymbol",
          "type": "string"
        },
        {
          "internalType": "uint8",
          "name": "_decimal",
          "type": "uint8"
        }
      ],
      "stateMutability": "nonpayable",
      "type": "constructor"
    },
    {
      "anonymous": false,
      "inputs": [
        {
          "indexed": true,
          "internalType": "address",
          "name": "owner",
          "type": "address"
        },
        {
          "indexed": true,
          "internalType": "address",
          "name": "spender",
          "type": "address"
        },
        {
          "indexed": false,
          "internalType": "uint256",
          "name": "value",
          "type": "uint256"
        }
      ],
      "name": "Approval",
      "type": "event"
    },
    {
      "anonymous": false,
      "inputs": [
        {
          "indexed": true,
          "internalType": "address",
          "name": "from",
          "type": "address"
        },
        {
          "indexed": true,
          "internalType": "address",
          "name": "to",
          "type": "address"
        },
        {
          "indexed": false,
          "internalType": "uint256",
          "name": "value",
          "type": "uint256"
        }
      ],
      "name": "Transfer",
      "type": "event"
    },
    {
      "anonymous": false,
      "inputs": [
        {
          "indexed": false,
          "internalType": "address",
          "name": "_from",
          "type": "address"
        },
        {
          "indexed": false,
          "internalType": "address",
          "name": "_to",
          "type": "address"
        },
        {
          "indexed": false,
          "internalType": "uint256",
          "name": "_amount",
          "type": "uint256"
        },
        {
          "indexed": false,
          "internalType": "uint256",
          "name": "_blockNumber",
          "type": "uint256"
        }
      ],
      "name": "TransferredToBackup",
      "type": "event"
    },
    {
      "inputs": [],
      "name": "MAX_SPLLY",
      "outputs": [
        {
          "internalType": "uint256",
          "name": "",
          "type": "uint256"
        }
      ],
      "stateMutability": "view",
      "type": "function"
    },
    {
      "inputs": [
        {
          "internalType": "address",
          "name": "owner",
          "type": "address"
        },
        {
          "internalType": "address",
          "name": "spender",
          "type": "address"
        }
      ],
      "name": "allowance",
      "outputs": [
        {
          "internalType": "uint256",
          "name": "",
          "type": "uint256"
        }
      ],
      "stateMutability": "view",
      "type": "function"
    },
    {
      "inputs": [
        {
          "internalType": "address",
          "name": "spender",
          "type": "address"
        },
        {
          "internalType": "uint256",
          "name": "amount",
          "type": "uint256"
        }
      ],
      "name": "approve",
      "outputs": [
        {
          "internalType": "bool",
          "name": "",
          "type": "bool"
        }
      ],
      "stateMutability": "nonpayable",
      "type": "function"
    },
    {
      "inputs": [
        {
          "internalType": "address",
          "name": "",
          "type": "address"
        }
      ],
      "name": "backupAddress",
      "outputs": [
        {
          "internalType": "address",
          "name": "",
          "type": "address"
        }
      ],
      "stateMutability": "view",
      "type": "function"
    },
    {
      "inputs": [
        {
          "internalType": "address",
          "name": "account",
          "type": "address"
        }
      ],
      "name": "balanceOf",
      "outputs": [
        {
          "internalType": "uint256",
          "name": "",
          "type": "uint256"
        }
      ],
      "stateMutability": "view",
      "type": "function"
    },
    {
      "inputs": [],
      "name": "decimals",
      "outputs": [
        {
          "internalType": "uint8",
          "name": "",
          "type": "uint8"
        }
      ],
      "stateMutability": "view",
      "type": "function"
    },
    {
      "inputs": [
        {
          "internalType": "address",
          "name": "spender",
          "type": "address"
        },
        {
          "internalType": "uint256",
          "name": "subtractedValue",
          "type": "uint256"
        }
      ],
      "name": "decreaseAllowance",
      "outputs": [
        {
          "internalType": "bool",
          "name": "",
          "type": "bool"
        }
      ],
      "stateMutability": "nonpayable",
      "type": "function"
    },
    {
      "inputs": [
        {
          "internalType": "address",
          "name": "spender",
          "type": "address"
        },
        {
          "internalType": "uint256",
          "name": "addedValue",
          "type": "uint256"
        }
      ],
      "name": "increaseAllowance",
      "outputs": [
        {
          "internalType": "bool",
          "name": "",
          "type": "bool"
        }
      ],
      "stateMutability": "nonpayable",
      "type": "function"
    },
    {
      "inputs": [],
      "name": "name",
      "outputs": [
        {
          "internalType": "string",
          "name": "",
          "type": "string"
        }
      ],
      "stateMutability": "view",
      "type": "function"
    },
    {
      "inputs": [
        {
          "internalType": "address",
          "name": "_backup",
          "type": "address"
        }
      ],
      "name": "registerBackupAddress",
      "outputs": [],
      "stateMutability": "nonpayable",
      "type": "function"
    },
    {
      "inputs": [],
      "name": "symbol",
      "outputs": [
        {
          "internalType": "string",
          "name": "",
          "type": "string"
        }
      ],
      "stateMutability": "view",
      "type": "function"
    },
    {
      "inputs": [],
      "name": "totalSupply",
      "outputs": [
        {
          "internalType": "uint256",
          "name": "",
          "type": "uint256"
        }
      ],
      "stateMutability": "view",
      "type": "function"
    },
    {
      "inputs": [
        {
          "internalType": "address",
          "name": "recipient",
          "type": "address"
        },
        {
          "internalType": "uint256",
          "name": "amount",
          "type": "uint256"
        }
      ],
      "name": "transfer",
      "outputs": [
        {
          "internalType": "bool",
          "name": "",
          "type": "bool"
        }
      ],
      "stateMutability": "nonpayable",
      "type": "function"
    },
    {
      "inputs": [
        {
          "internalType": "address",
          "name": "sender",
          "type": "address"
        },
        {
          "internalType": "address",
          "name": "recipient",
          "type": "address"
        },
        {
          "internalType": "uint256",
          "name": "amount",
          "type": "uint256"
        }
      ],
      "name": "transferFrom",
      "outputs": [
        {
          "internalType": "bool",
          "name": "",
          "type": "bool"
        }
      ],
      "stateMutability": "nonpayable",
      "type": "function"
    },
    {
      "inputs": [
        {
          "internalType": "uint256",
          "name": "_amount",
          "type": "uint256"
        }
      ],
      "name": "transferToBackup",
      "outputs": [],
      "stateMutability": "nonpayable",
      "type": "function"
    },
    {
      "inputs": [
        {
          "internalType": "address",
          "name": "_from",
          "type": "address"
        },
        {
          "internalType": "uint256",
          "name": "_amount",
          "type": "uint256"
        },
        {
          "internalType": "uint8",
          "name": "v",
          "type": "uint8"
        },
        {
          "internalType": "bytes32",
          "name": "r",
          "type": "bytes32"
        },
        {
          "internalType": "bytes32",
          "name": "s",
          "type": "bytes32"
        }
      ],
      "name": "transferTokensToBackupWithSignedMessage",
      "outputs": [],
      "stateMutability": "nonpayable",
      "type": "function"
    },
    {
      "inputs": [
        {
          "internalType": "address",
          "name": "",
          "type": "address"
        }
      ],
      "name": "userTransferAllowanceNonce",
      "outputs": [
        {
          "internalType": "uint256",
          "name": "",
          "type": "uint256"
        }
      ],
      "stateMutability": "view",
      "type": "function"
    },
    {
      "inputs": [],
      "name": "version",
      "outputs": [
        {
          "internalType": "string",
          "name": "",
          "type": "string"
        }
      ],
      "stateMutability": "view",
      "type": "function"
    }
  ],
  "transactionHash": "0xc89503e48bcb42cca2fd1290562c812df387eee37e89de653d8eab5ddc73208f",
  "args": [
    "Illumvium Token",
    "ILLT",
    18
  ],
  "solcInputHash": "2ab9bf426875325862de7b99e9cc9754",
  "bytecode": "0x60806040523480156200001157600080fd5b50604051620029543803806200295483398181016040528101906200003791906200046e565b6200004a838383620000b760201b60201c565b62000091836040518060400160405280600181526020017f31000000000000000000000000000000000000000000000000000000000000008152506200010960201b60201c565b620000ae336a084595161401484a0000006200019160201b60201c565b50505062000891565b8260039080519060200190620000cf92919062000335565b508160059080519060200190620000e892919062000335565b5080600460006101000a81548160ff021916908360ff160217905550505050565b60008280519060200120905060008280519060200120905060007f8b73c3c69bb8fe3d512ecc4cf759cc79239f7b179b0ffacaa9a75d522b39400f9050826008819055508160098190555062000164620002e260201b60201c565b6007819055506200017d818484620002ea60201b60201c565b60068190555080600a819055505050505050565b600073ffffffffffffffffffffffffffffffffffffffff168273ffffffffffffffffffffffffffffffffffffffff16141562000204576040517f08c379a0000000000000000000000000000000000000000000000000000000008152600401620001fb90620005ad565b60405180910390fd5b80600260008282546200021891906200065c565b92505081905550806000808473ffffffffffffffffffffffffffffffffffffffff1673ffffffffffffffffffffffffffffffffffffffff16815260200190815260200160002060008282546200026f91906200065c565b925050819055508173ffffffffffffffffffffffffffffffffffffffff16600073ffffffffffffffffffffffffffffffffffffffff167fddf252ad1be2c89b69c2b068fc378daa952ba7f163c4a11628f55a4df523b3ef83604051620002d69190620005cf565b60405180910390a35050565b600046905090565b6000838383620002ff620002e260201b60201c565b306040516020016200031695949392919062000550565b6040516020818303038152906040528051906020012090509392505050565b828054620003439062000744565b90600052602060002090601f016020900481019282620003675760008555620003b3565b82601f106200038257805160ff1916838001178555620003b3565b82800160010185558215620003b3579182015b82811115620003b257825182559160200191906001019062000395565b5b509050620003c29190620003c6565b5090565b5b80821115620003e1576000816000905550600101620003c7565b5090565b6000620003fc620003f68462000615565b620005ec565b9050828152602081018484840111156200041557600080fd5b620004228482856200070e565b509392505050565b600082601f8301126200043c57600080fd5b81516200044e848260208601620003e5565b91505092915050565b600081519050620004688162000877565b92915050565b6000806000606084860312156200048457600080fd5b600084015167ffffffffffffffff8111156200049f57600080fd5b620004ad868287016200042a565b935050602084015167ffffffffffffffff811115620004cb57600080fd5b620004d9868287016200042a565b9250506040620004ec8682870162000457565b9150509250925092565b6200050181620006b9565b82525050565b6200051281620006cd565b82525050565b600062000527601f836200064b565b915062000534826200084e565b602082019050919050565b6200054a81620006f7565b82525050565b600060a08201905062000567600083018862000507565b62000576602083018762000507565b62000585604083018662000507565b6200059460608301856200053f565b620005a36080830184620004f6565b9695505050505050565b60006020820190508181036000830152620005c88162000518565b9050919050565b6000602082019050620005e660008301846200053f565b92915050565b6000620005f86200060b565b90506200060682826200077a565b919050565b6000604051905090565b600067ffffffffffffffff8211156200063357620006326200080e565b5b6200063e826200083d565b9050602081019050919050565b600082825260208201905092915050565b60006200066982620006f7565b91506200067683620006f7565b9250827fffffffffffffffffffffffffffffffffffffffffffffffffffffffffffffffff03821115620006ae57620006ad620007b0565b5b828201905092915050565b6000620006c682620006d7565b9050919050565b6000819050919050565b600073ffffffffffffffffffffffffffffffffffffffff82169050919050565b6000819050919050565b600060ff82169050919050565b60005b838110156200072e57808201518184015260208101905062000711565b838111156200073e576000848401525b50505050565b600060028204905060018216806200075d57607f821691505b60208210811415620007745762000773620007df565b5b50919050565b62000785826200083d565b810181811067ffffffffffffffff82111715620007a757620007a66200080e565b5b80604052505050565b7f4e487b7100000000000000000000000000000000000000000000000000000000600052601160045260246000fd5b7f4e487b7100000000000000000000000000000000000000000000000000000000600052602260045260246000fd5b7f4e487b7100000000000000000000000000000000000000000000000000000000600052604160045260246000fd5b6000601f19601f8301169050919050565b7f45524332303a206d696e7420746f20746865207a65726f206164647265737300600082015250565b620008828162000701565b81146200088e57600080fd5b50565b6120b380620008a16000396000f3fe608060405234801561001057600080fd5b50600436106101165760003560e01c80638ce4cc07116100a2578063a9059cbb11610071578063a9059cbb14610309578063c97696c814610339578063dd62ed3e14610369578063eb71418a14610399578063f9ac7ca6146103b757610116565b80638ce4cc071461026f57806395d89b411461029f578063a457c2d7146102bd578063a74dd0f0146102ed57610116565b80632e39f34a116100e95780632e39f34a146101b7578063313ce567146101d357806339509351146101f157806354fd4d501461022157806370a082311461023f57610116565b806306fdde031461011b578063095ea7b31461013957806318160ddd1461016957806323b872dd14610187575b600080fd5b6101236103d3565b60405161013091906119ae565b60405180910390f35b610153600480360381019061014e91906114f6565b610461565b60405161016091906118a8565b60405180910390f35b610171610478565b60405161017e9190611b30565b60405180910390f35b6101a1600480360381019061019c91906114a7565b610482565b6040516101ae91906118a8565b60405180910390f35b6101d160048036038101906101cc9190611442565b61052c565b005b6101db610668565b6040516101e89190611b4b565b60405180910390f35b61020b600480360381019061020691906114f6565b61067b565b60405161021891906118a8565b60405180910390f35b610229610719565b60405161023691906119ae565b60405180910390f35b61025960048036038101906102549190611442565b610752565b6040516102669190611b30565b60405180910390f35b61028960048036038101906102849190611442565b61079a565b6040516102969190611b30565b60405180910390f35b6102a76107b2565b6040516102b491906119ae565b60405180910390f35b6102d760048036038101906102d291906114f6565b610840565b6040516102e491906118a8565b60405180910390f35b610307600480360381019061030291906115a9565b6108de565b005b610323600480360381019061031e91906114f6565b610a65565b60405161033091906118a8565b60405180910390f35b610353600480360381019061034e9190611442565b610a7c565b6040516103609190611848565b60405180910390f35b610383600480360381019061037e919061146b565b610aaf565b6040516103909190611b30565b60405180910390f35b6103a1610b36565b6040516103ae9190611b30565b60405180910390f35b6103d160048036038101906103cc9190611532565b610b45565b005b600380546103e090611ca9565b80601f016020809104026020016040519081016040528092919081815260200182805461040c90611ca9565b80156104595780601f1061042e57610100808354040283529160200191610459565b820191906000526020600020905b81548152906001019060200180831161043c57829003601f168201915b505050505081565b600061046e338484610ef7565b6001905092915050565b6000600254905090565b600061048f8484846110c2565b610521843384600160008973ffffffffffffffffffffffffffffffffffffffff1673ffffffffffffffffffffffffffffffffffffffff16815260200190815260200160002060003373ffffffffffffffffffffffffffffffffffffffff1673ffffffffffffffffffffffffffffffffffffffff1681526020019081526020016000205461051c9190611be3565b610ef7565b600190509392505050565b600061053733610752565b11610577576040517f08c379a000000000000000000000000000000000000000000000000000000000815260040161056e90611a70565b60405180910390fd5b600073ffffffffffffffffffffffffffffffffffffffff168173ffffffffffffffffffffffffffffffffffffffff1614156105e7576040517f08c379a00000000000000000000000000000000000000000000000000000000081526004016105de90611a30565b60405180910390fd5b80600b60003373ffffffffffffffffffffffffffffffffffffffff1673ffffffffffffffffffffffffffffffffffffffff16815260200190815260200160002060006101000a81548173ffffffffffffffffffffffffffffffffffffffff021916908373ffffffffffffffffffffffffffffffffffffffff16021790555050565b600460009054906101000a900460ff1681565b600061070f338484600160003373ffffffffffffffffffffffffffffffffffffffff1673ffffffffffffffffffffffffffffffffffffffff16815260200190815260200160002060008873ffffffffffffffffffffffffffffffffffffffff1673ffffffffffffffffffffffffffffffffffffffff1681526020019081526020016000205461070a9190611b8d565b610ef7565b6001905092915050565b6040518060400160405280600181526020017f310000000000000000000000000000000000000000000000000000000000000081525081565b60008060008373ffffffffffffffffffffffffffffffffffffffff1673ffffffffffffffffffffffffffffffffffffffff168152602001908152602001600020549050919050565b600c6020528060005260406000206000915090505481565b600580546107bf90611ca9565b80601f01602080910402602001604051908101604052809291908181526020018280546107eb90611ca9565b80156108385780601f1061080d57610100808354040283529160200191610838565b820191906000526020600020905b81548152906001019060200180831161081b57829003601f168201915b505050505081565b60006108d4338484600160003373ffffffffffffffffffffffffffffffffffffffff1673ffffffffffffffffffffffffffffffffffffffff16815260200190815260200160002060008873ffffffffffffffffffffffffffffffffffffffff1673ffffffffffffffffffffffffffffffffffffffff168152602001908152602001600020546108cf9190611be3565b610ef7565b6001905092915050565b806108e833610752565b1015610929576040517f08c379a000000000000000000000000000000000000000000000000000000000815260040161092090611b10565b60405180910390fd5b600073ffffffffffffffffffffffffffffffffffffffff16600b60003373ffffffffffffffffffffffffffffffffffffffff1673ffffffffffffffffffffffffffffffffffffffff16815260200190815260200160002060009054906101000a900473ffffffffffffffffffffffffffffffffffffffff1673ffffffffffffffffffffffffffffffffffffffff1614156109f8576040517f08c379a00000000000000000000000000000000000000000000000000000000081526004016109ef90611a90565b60405180910390fd5b610a6233600b60003373ffffffffffffffffffffffffffffffffffffffff1673ffffffffffffffffffffffffffffffffffffffff16815260200190815260200160002060009054906101000a900473ffffffffffffffffffffffffffffffffffffffff1683611324565b50565b6000610a723384846110c2565b6001905092915050565b600b6020528060005260406000206000915054906101000a900473ffffffffffffffffffffffffffffffffffffffff1681565b6000600160008473ffffffffffffffffffffffffffffffffffffffff1673ffffffffffffffffffffffffffffffffffffffff16815260200190815260200160002060008373ffffffffffffffffffffffffffffffffffffffff1673ffffffffffffffffffffffffffffffffffffffff16815260200190815260200160002054905092915050565b6a084595161401484a00000081565b3373ffffffffffffffffffffffffffffffffffffffff168573ffffffffffffffffffffffffffffffffffffffff161415610bb4576040517f08c379a0000000000000000000000000000000000000000000000000000000008152600401610bab90611a10565b60405180910390fd5b600073ffffffffffffffffffffffffffffffffffffffff16600b60008773ffffffffffffffffffffffffffffffffffffffff1673ffffffffffffffffffffffffffffffffffffffff16815260200190815260200160002060009054906101000a900473ffffffffffffffffffffffffffffffffffffffff1673ffffffffffffffffffffffffffffffffffffffff161415610c83576040517f08c379a0000000000000000000000000000000000000000000000000000000008152600401610c7a90611a90565b60405180910390fd5b83610c8d86610752565b1015610cce576040517f08c379a0000000000000000000000000000000000000000000000000000000008152600401610cc590611ab0565b60405180910390fd5b6000610cd8611371565b7fd1c3c85b22158fab803476cca32a5626e645f3e9bf69a5ad6441990008cc59577f5e231b70296eaa9383b595d24cbf33f7d29a24da640b1587117439ba2df2cdfe8888600c60008c73ffffffffffffffffffffffffffffffffffffffff1673ffffffffffffffffffffffffffffffffffffffff1681526020019081526020016000206000815480929190610d6c90611cdb565b91905055604051602001610d849594939291906118c3565b60405160208183030381529060405280519060200120604051602001610dab929190611811565b604051602081830303815290604052805190602001209050600060018286868660405160008152602001604052604051610de89493929190611969565b6020604051602081039080840390855afa158015610e0a573d6000803e3d6000fd5b5050506020604051035190508673ffffffffffffffffffffffffffffffffffffffff168173ffffffffffffffffffffffffffffffffffffffff1614610e84576040517f08c379a0000000000000000000000000000000000000000000000000000000008152600401610e7b90611a50565b60405180910390fd5b610eee87600b60008a73ffffffffffffffffffffffffffffffffffffffff1673ffffffffffffffffffffffffffffffffffffffff16815260200190815260200160002060009054906101000a900473ffffffffffffffffffffffffffffffffffffffff1688611324565b50505050505050565b600073ffffffffffffffffffffffffffffffffffffffff168373ffffffffffffffffffffffffffffffffffffffff161415610f67576040517f08c379a0000000000000000000000000000000000000000000000000000000008152600401610f5e90611af0565b60405180910390fd5b600073ffffffffffffffffffffffffffffffffffffffff168273ffffffffffffffffffffffffffffffffffffffff161415610fd7576040517f08c379a0000000000000000000000000000000000000000000000000000000008152600401610fce906119f0565b60405180910390fd5b80600160008573ffffffffffffffffffffffffffffffffffffffff1673ffffffffffffffffffffffffffffffffffffffff16815260200190815260200160002060008473ffffffffffffffffffffffffffffffffffffffff1673ffffffffffffffffffffffffffffffffffffffff168152602001908152602001600020819055508173ffffffffffffffffffffffffffffffffffffffff168373ffffffffffffffffffffffffffffffffffffffff167f8c5be1e5ebec7d5bd14f71427d1e84f3dd0314c0f7b2291e5b200ac8c7c3b925836040516110b59190611b30565b60405180910390a3505050565b600073ffffffffffffffffffffffffffffffffffffffff168373ffffffffffffffffffffffffffffffffffffffff161415611132576040517f08c379a000000000000000000000000000000000000000000000000000000000815260040161112990611ad0565b60405180910390fd5b600073ffffffffffffffffffffffffffffffffffffffff168273ffffffffffffffffffffffffffffffffffffffff1614156111a2576040517f08c379a0000000000000000000000000000000000000000000000000000000008152600401611199906119d0565b60405180910390fd5b806000808573ffffffffffffffffffffffffffffffffffffffff1673ffffffffffffffffffffffffffffffffffffffff168152602001908152602001600020546111ec9190611be3565b6000808573ffffffffffffffffffffffffffffffffffffffff1673ffffffffffffffffffffffffffffffffffffffff16815260200190815260200160002081905550806000808473ffffffffffffffffffffffffffffffffffffffff1673ffffffffffffffffffffffffffffffffffffffff168152602001908152602001600020546112789190611b8d565b6000808473ffffffffffffffffffffffffffffffffffffffff1673ffffffffffffffffffffffffffffffffffffffff168152602001908152602001600020819055508173ffffffffffffffffffffffffffffffffffffffff168373ffffffffffffffffffffffffffffffffffffffff167fddf252ad1be2c89b69c2b068fc378daa952ba7f163c4a11628f55a4df523b3ef836040516113179190611b30565b60405180910390a3505050565b61132f8383836110c2565b7f4f652d9b3bbc715a30808b066662212e8b12dae04b38755463ce6d7ff9f19e93838383436040516113649493929190611863565b60405180910390a1505050565b600060075461137e6113a5565b141561138e5760065490506113a2565b61139f600a546008546009546113ad565b90505b90565b600046905090565b60008383836113ba6113a5565b306040516020016113cf959493929190611916565b6040516020818303038152906040528051906020012090509392505050565b6000813590506113fd81612021565b92915050565b60008135905061141281612038565b92915050565b6000813590506114278161204f565b92915050565b60008135905061143c81612066565b92915050565b60006020828403121561145457600080fd5b6000611462848285016113ee565b91505092915050565b6000806040838503121561147e57600080fd5b600061148c858286016113ee565b925050602061149d858286016113ee565b9150509250929050565b6000806000606084860312156114bc57600080fd5b60006114ca868287016113ee565b93505060206114db868287016113ee565b92505060406114ec86828701611418565b9150509250925092565b6000806040838503121561150957600080fd5b6000611517858286016113ee565b925050602061152885828601611418565b9150509250929050565b600080600080600060a0868803121561154a57600080fd5b6000611558888289016113ee565b955050602061156988828901611418565b945050604061157a8882890161142d565b935050606061158b88828901611403565b925050608061159c88828901611403565b9150509295509295909350565b6000602082840312156115bb57600080fd5b60006115c984828501611418565b91505092915050565b6115db81611c17565b82525050565b6115ea81611c29565b82525050565b6115f981611c35565b82525050565b61161061160b82611c35565b611d24565b82525050565b600061162182611b66565b61162b8185611b71565b935061163b818560208601611c76565b61164481611d8c565b840191505092915050565b600061165c602383611b71565b915061166782611d9d565b604082019050919050565b600061167f602283611b71565b915061168a82611dec565b604082019050919050565b60006116a2600d83611b71565b91506116ad82611e3b565b602082019050919050565b60006116c5600283611b82565b91506116d082611e64565b600282019050919050565b60006116e8601683611b71565b91506116f382611e8d565b602082019050919050565b600061170b601183611b71565b915061171682611eb6565b602082019050919050565b600061172e601083611b71565b915061173982611edf565b602082019050919050565b6000611751602083611b71565b915061175c82611f08565b602082019050919050565b6000611774601883611b71565b915061177f82611f31565b602082019050919050565b6000611797602583611b71565b91506117a282611f5a565b604082019050919050565b60006117ba602483611b71565b91506117c582611fa9565b604082019050919050565b60006117dd601483611b71565b91506117e882611ff8565b602082019050919050565b6117fc81611c5f565b82525050565b61180b81611c69565b82525050565b600061181c826116b8565b915061182882856115ff565b60208201915061183882846115ff565b6020820191508190509392505050565b600060208201905061185d60008301846115d2565b92915050565b600060808201905061187860008301876115d2565b61188560208301866115d2565b61189260408301856117f3565b61189f60608301846117f3565b95945050505050565b60006020820190506118bd60008301846115e1565b92915050565b600060a0820190506118d860008301886115f0565b6118e560208301876115f0565b6118f260408301866115d2565b6118ff60608301856117f3565b61190c60808301846117f3565b9695505050505050565b600060a08201905061192b60008301886115f0565b61193860208301876115f0565b61194560408301866115f0565b61195260608301856117f3565b61195f60808301846115d2565b9695505050505050565b600060808201905061197e60008301876115f0565b61198b6020830186611802565b61199860408301856115f0565b6119a560608301846115f0565b95945050505050565b600060208201905081810360008301526119c88184611616565b905092915050565b600060208201905081810360008301526119e98161164f565b9050919050565b60006020820190508181036000830152611a0981611672565b9050919050565b60006020820190508181036000830152611a2981611695565b9050919050565b60006020820190508181036000830152611a49816116db565b9050919050565b60006020820190508181036000830152611a69816116fe565b9050919050565b60006020820190508181036000830152611a8981611721565b9050919050565b60006020820190508181036000830152611aa981611744565b9050919050565b60006020820190508181036000830152611ac981611767565b9050919050565b60006020820190508181036000830152611ae98161178a565b9050919050565b60006020820190508181036000830152611b09816117ad565b9050919050565b60006020820190508181036000830152611b29816117d0565b9050919050565b6000602082019050611b4560008301846117f3565b92915050565b6000602082019050611b606000830184611802565b92915050565b600081519050919050565b600082825260208201905092915050565b600081905092915050565b6000611b9882611c5f565b9150611ba383611c5f565b9250827fffffffffffffffffffffffffffffffffffffffffffffffffffffffffffffffff03821115611bd857611bd7611d2e565b5b828201905092915050565b6000611bee82611c5f565b9150611bf983611c5f565b925082821015611c0c57611c0b611d2e565b5b828203905092915050565b6000611c2282611c3f565b9050919050565b60008115159050919050565b6000819050919050565b600073ffffffffffffffffffffffffffffffffffffffff82169050919050565b6000819050919050565b600060ff82169050919050565b60005b83811015611c94578082015181840152602081019050611c79565b83811115611ca3576000848401525b50505050565b60006002820490506001821680611cc157607f821691505b60208210811415611cd557611cd4611d5d565b5b50919050565b6000611ce682611c5f565b91507fffffffffffffffffffffffffffffffffffffffffffffffffffffffffffffffff821415611d1957611d18611d2e565b5b600182019050919050565b6000819050919050565b7f4e487b7100000000000000000000000000000000000000000000000000000000600052601160045260246000fd5b7f4e487b7100000000000000000000000000000000000000000000000000000000600052602260045260246000fd5b6000601f19601f8301169050919050565b7f45524332303a207472616e7366657220746f20746865207a65726f206164647260008201527f6573730000000000000000000000000000000000000000000000000000000000602082015250565b7f45524332303a20617070726f766520746f20746865207a65726f20616464726560008201527f7373000000000000000000000000000000000000000000000000000000000000602082015250565b7f4e6f742064656c656761746f7200000000000000000000000000000000000000600082015250565b7f1901000000000000000000000000000000000000000000000000000000000000600082015250565b7f496e76616c6964206261636b7570206164647265737300000000000000000000600082015250565b7f494e56414c49445f5349474e4154555245000000000000000000000000000000600082015250565b7f4e6f7420746f6b656e20686f6c64657200000000000000000000000000000000600082015250565b7f4261636b75702061646472657373206973206e6f742072656769737465726564600082015250565b7f4578636565647320686f6c64657227732062616c616e63650000000000000000600082015250565b7f45524332303a207472616e736665722066726f6d20746865207a65726f20616460008201527f6472657373000000000000000000000000000000000000000000000000000000602082015250565b7f45524332303a20617070726f76652066726f6d20746865207a65726f2061646460008201527f7265737300000000000000000000000000000000000000000000000000000000602082015250565b7f4578636565647320757365722062616c616e6365000000000000000000000000600082015250565b61202a81611c17565b811461203557600080fd5b50565b61204181611c35565b811461204c57600080fd5b50565b61205881611c5f565b811461206357600080fd5b50565b61206f81611c69565b811461207a57600080fd5b5056fea26469706673582212204dd61fab40a0f145d471a92032fdcb429075cf6dd9098087a6dccb786b7ab2d164736f6c63430008040033",
  "devdoc": {
    "author": "@conlot-crypto",
    "events": {
      "TransferredToBackup(address,address,uint256,uint256)": {
        "details": "event being triggered when backup transfer happens"
      }
    },
    "kind": "dev",
    "methods": {
      "allowance(address,address)": {
        "details": "Returns the remaining number of tokens that `spender` will be allowed to spend on behalf of `owner` through {transferFrom}. This is zero by default. This value changes when {approve} or {transferFrom} are called."
      },
      "approve(address,uint256)": {
        "details": "Sets `amount` as the allowance of `spender` over the caller's tokens. Returns a boolean value indicating whether the operation succeeded. IMPORTANT: Beware that changing an allowance with this method brings the risk that someone may use both the old and the new allowance by unfortunate transaction ordering. One possible solution to mitigate this race condition is to first reduce the spender's allowance to 0 and set the desired value afterwards: https://github.com/ethereum/EIPs/issues/20#issuecomment-263524729 Emits an {Approval} event."
      },
      "balanceOf(address)": {
        "details": "Returns the amount of tokens owned by `account`."
      },
      "constructor": {
        "details": "setup a IlluviumToken"
      },
      "registerBackupAddress(address)": {
        "details": "setup backup address",
        "params": {
          "_backup": "address where tokens will be transfered when backup happens"
        }
      },
      "totalSupply()": {
        "details": "Returns the amount of tokens in existence."
      },
      "transferToBackup(uint256)": {
        "details": "token holders transfer tokens to backup without signed message"
      },
      "transferTokensToBackupWithSignedMessage(address,uint256,uint8,bytes32,bytes32)": {
        "details": "transfer tokens to backup with signed message"
      }
    },
    "stateVariables": {
      "_BACKUP_TRANSFER_SIGNATURE_TYPE_HASH": {
        "details": "backup transfer message digest"
      },
      "backupAddress": {
        "details": "registered backup address for user"
      },
      "userTransferAllowanceNonce": {
        "details": "nonce being used for generat signaturs"
      },
      "version": {
        "details": "version"
      }
    },
    "title": "IlluviumToken",
    "version": 1
  },
  "userdoc": {
    "kind": "user",
    "methods": {
      "MAX_SPLLY()": {
        "notice": "max supply of tokens"
      }
    },
    "version": 1
  },
  "storageLayout": {
    "storage": [
      {
        "astId": 1022,
        "contract": "contracts/IlluviumToken.sol:IlluviumToken",
        "label": "_balances",
        "offset": 0,
        "slot": "0",
        "type": "t_mapping(t_address,t_uint256)"
      },
      {
        "astId": 1028,
        "contract": "contracts/IlluviumToken.sol:IlluviumToken",
        "label": "_allowances",
        "offset": 0,
        "slot": "1",
        "type": "t_mapping(t_address,t_mapping(t_address,t_uint256))"
      },
      {
        "astId": 1030,
        "contract": "contracts/IlluviumToken.sol:IlluviumToken",
        "label": "_totalSupply",
        "offset": 0,
        "slot": "2",
        "type": "t_uint256"
      },
      {
        "astId": 1032,
        "contract": "contracts/IlluviumToken.sol:IlluviumToken",
        "label": "name",
        "offset": 0,
        "slot": "3",
        "type": "t_string_storage"
      },
      {
        "astId": 1034,
        "contract": "contracts/IlluviumToken.sol:IlluviumToken",
        "label": "decimals",
        "offset": 0,
        "slot": "4",
        "type": "t_uint8"
      },
      {
        "astId": 1036,
        "contract": "contracts/IlluviumToken.sol:IlluviumToken",
        "label": "symbol",
        "offset": 0,
        "slot": "5",
        "type": "t_string_storage"
      },
      {
        "astId": 867,
        "contract": "contracts/IlluviumToken.sol:IlluviumToken",
        "label": "_CACHED_DOMAIN_SEPARATOR",
        "offset": 0,
        "slot": "6",
        "type": "t_bytes32"
      },
      {
        "astId": 869,
        "contract": "contracts/IlluviumToken.sol:IlluviumToken",
        "label": "_CACHED_CHAIN_ID",
        "offset": 0,
        "slot": "7",
        "type": "t_uint256"
      },
      {
        "astId": 871,
        "contract": "contracts/IlluviumToken.sol:IlluviumToken",
        "label": "_HASHED_NAME",
        "offset": 0,
        "slot": "8",
        "type": "t_bytes32"
      },
      {
        "astId": 873,
        "contract": "contracts/IlluviumToken.sol:IlluviumToken",
        "label": "_HASHED_VERSION",
        "offset": 0,
        "slot": "9",
        "type": "t_bytes32"
      },
      {
        "astId": 875,
        "contract": "contracts/IlluviumToken.sol:IlluviumToken",
        "label": "_TYPE_HASH",
        "offset": 0,
        "slot": "10",
        "type": "t_bytes32"
      },
      {
        "astId": 618,
        "contract": "contracts/IlluviumToken.sol:IlluviumToken",
        "label": "backupAddress",
        "offset": 0,
        "slot": "11",
        "type": "t_mapping(t_address,t_address)"
      },
      {
        "astId": 623,
        "contract": "contracts/IlluviumToken.sol:IlluviumToken",
        "label": "userTransferAllowanceNonce",
        "offset": 0,
        "slot": "12",
        "type": "t_mapping(t_address,t_uint256)"
      }
    ],
    "types": {
      "t_address": {
        "encoding": "inplace",
        "label": "address",
        "numberOfBytes": "20"
      },
      "t_bytes32": {
        "encoding": "inplace",
        "label": "bytes32",
        "numberOfBytes": "32"
      },
      "t_mapping(t_address,t_address)": {
        "encoding": "mapping",
        "key": "t_address",
        "label": "mapping(address => address)",
        "numberOfBytes": "32",
        "value": "t_address"
      },
      "t_mapping(t_address,t_mapping(t_address,t_uint256))": {
        "encoding": "mapping",
        "key": "t_address",
        "label": "mapping(address => mapping(address => uint256))",
        "numberOfBytes": "32",
        "value": "t_mapping(t_address,t_uint256)"
      },
      "t_mapping(t_address,t_uint256)": {
        "encoding": "mapping",
        "key": "t_address",
        "label": "mapping(address => uint256)",
        "numberOfBytes": "32",
        "value": "t_uint256"
      },
      "t_string_storage": {
        "encoding": "bytes",
        "label": "string",
        "numberOfBytes": "32"
      },
      "t_uint256": {
        "encoding": "inplace",
        "label": "uint256",
        "numberOfBytes": "32"
      },
      "t_uint8": {
        "encoding": "inplace",
        "label": "uint8",
        "numberOfBytes": "1"
      }
    }
  }
}